{
  "address": "0xCDf7E1a6Be19EcE762477Cf89c786B9216307405",
  "abi": [
    {
      "anonymous": false,
      "inputs": [
        {
          "indexed": true,
          "internalType": "uint256",
          "name": "episodeId",
          "type": "uint256"
        },
        {
          "indexed": true,
          "internalType": "address",
          "name": "creator",
          "type": "address"
        },
        {
          "indexed": false,
          "internalType": "string",
          "name": "title",
          "type": "string"
        },
        {
          "indexed": false,
          "internalType": "uint256",
          "name": "timestamp",
          "type": "uint256"
        }
      ],
      "name": "EpisodeCreated",
      "type": "event"
    },
    {
      "anonymous": false,
      "inputs": [
        {
          "indexed": true,
          "internalType": "address",
          "name": "from",
          "type": "address"
        },
        {
          "indexed": true,
          "internalType": "address",
          "name": "to",
          "type": "address"
        },
        {
          "indexed": false,
          "internalType": "uint256",
          "name": "amount",
          "type": "uint256"
        }
      ],
      "name": "TipSent",
      "type": "event"
    },
    {
      "inputs": [
        {
          "internalType": "string",
          "name": "_title",
          "type": "string"
        },
        {
          "internalType": "string",
          "name": "_audioURI",
          "type": "string"
        },
        {
          "internalType": "string",
          "name": "_transcriptURI",
          "type": "string"
        },
        {
          "internalType": "string",
          "name": "_summary",
          "type": "string"
        },
        {
          "internalType": "string",
          "name": "_tags",
          "type": "string"
        }
      ],
      "name": "createEpisode",
      "outputs": [],
      "stateMutability": "nonpayable",
      "type": "function"
    },
    {
      "inputs": [
        {
          "internalType": "address",
          "name": "",
          "type": "address"
        },
        {
          "internalType": "uint256",
          "name": "",
          "type": "uint256"
        }
      ],
      "name": "creatorEpisodes",
      "outputs": [
        {
          "internalType": "uint256",
          "name": "",
          "type": "uint256"
        }
      ],
      "stateMutability": "view",
      "type": "function"
    },
    {
      "inputs": [
        {
          "internalType": "address",
          "name": "",
          "type": "address"
        }
      ],
      "name": "creatorTips",
      "outputs": [
        {
          "internalType": "uint256",
          "name": "",
          "type": "uint256"
        }
      ],
      "stateMutability": "view",
      "type": "function"
    },
    {
      "inputs": [
        {
          "internalType": "uint256",
          "name": "",
          "type": "uint256"
        }
      ],
      "name": "episodes",
      "outputs": [
        {
          "internalType": "address",
          "name": "creator",
          "type": "address"
        },
        {
          "internalType": "string",
          "name": "title",
          "type": "string"
        },
        {
          "internalType": "string",
          "name": "audioURI",
          "type": "string"
        },
        {
          "internalType": "string",
          "name": "transcriptURI",
          "type": "string"
        },
        {
          "internalType": "string",
          "name": "summary",
          "type": "string"
        },
        {
          "internalType": "string",
          "name": "tags",
          "type": "string"
        },
        {
          "internalType": "uint256",
          "name": "timestamp",
          "type": "uint256"
        },
        {
          "internalType": "uint256",
          "name": "tipAmount",
          "type": "uint256"
        }
      ],
      "stateMutability": "view",
      "type": "function"
    },
    {
      "inputs": [
        {
          "internalType": "uint256",
          "name": "_episodeId",
          "type": "uint256"
        }
      ],
      "name": "getEpisode",
      "outputs": [
        {
          "components": [
            {
              "internalType": "address",
              "name": "creator",
              "type": "address"
            },
            {
              "internalType": "string",
              "name": "title",
              "type": "string"
            },
            {
              "internalType": "string",
              "name": "audioURI",
              "type": "string"
            },
            {
              "internalType": "string",
              "name": "transcriptURI",
              "type": "string"
            },
            {
              "internalType": "string",
              "name": "summary",
              "type": "string"
            },
            {
              "internalType": "string",
              "name": "tags",
              "type": "string"
            },
            {
              "internalType": "uint256",
              "name": "timestamp",
              "type": "uint256"
            },
            {
              "internalType": "uint256",
              "name": "tipAmount",
              "type": "uint256"
            }
          ],
          "internalType": "struct MindCastRegistry.Episode",
          "name": "",
          "type": "tuple"
        }
      ],
      "stateMutability": "view",
      "type": "function"
    },
    {
      "inputs": [
        {
          "internalType": "address",
          "name": "_creator",
          "type": "address"
        }
      ],
      "name": "getEpisodesByCreator",
      "outputs": [
        {
          "internalType": "uint256[]",
          "name": "",
          "type": "uint256[]"
        }
      ],
      "stateMutability": "view",
      "type": "function"
    },
    {
      "inputs": [],
      "name": "getTotalEpisodes",
      "outputs": [
        {
          "internalType": "uint256",
          "name": "",
          "type": "uint256"
        }
      ],
      "stateMutability": "view",
      "type": "function"
    },
    {
      "inputs": [
        {
          "internalType": "uint256",
          "name": "_episodeId",
          "type": "uint256"
        }
      ],
      "name": "tipCreator",
      "outputs": [],
      "stateMutability": "payable",
      "type": "function"
    }
  ],
  "transactionHash": "0xfb450722226d0d3a636a26f959b92013a21acc0850f926c0e7f6258c242af700",
  "args": [],
  "numDeployments": 1,
  "solcInputHash": "c97f97cfa79245814aa45302d33449b3",
  "bytecode": "0x6080604052348015600e575f5ffd5b5061120e8061001c5f395ff3fe608060405260043610610079575f3560e01c80639cfee7bb1161004c5780639cfee7bb14610133578063b97be95e1461015e578063ec78f8a214610171578063f0a5e92e1461019d575f5ffd5b806323a4e5631461007d5780632fab7f99146100b25780634841c7cf146100d357806386f328a914610100575b5f5ffd5b348015610088575f5ffd5b5061009c610097366004610ca3565b6101b0565b6040516100a99190610ce8565b60405180910390f35b3480156100bd575f5ffd5b506100d16100cc366004610e56565b610579565b005b3480156100de575f5ffd5b506100f26100ed366004610f54565b61070a565b6040519081526020016100a9565b34801561010b575f5ffd5b5061011f61011a366004610ca3565b610735565b6040516100a9989796959493929190610f7c565b34801561013e575f5ffd5b506100f261014d366004611006565b60026020525f908152604090205481565b6100d161016c366004610ca3565b610a2e565b34801561017c575f5ffd5b5061019061018b366004611006565b610c3a565b6040516100a99190611026565b3480156101a8575f5ffd5b505f546100f2565b6101fe6040518061010001604052805f6001600160a01b0316815260200160608152602001606081526020016060815260200160608152602001606081526020015f81526020015f81525090565b5f54821061024c5760405162461bcd60e51b8152602060048201526016602482015275115c1a5cdbd91948191bd95cc81b9bdd08195e1a5cdd60521b60448201526064015b60405180910390fd5b5f828154811061025e5761025e611068565b5f91825260209182902060408051610100810190915260089092020180546001600160a01b03168252600181018054929391929184019161029e9061107c565b80601f01602080910402602001604051908101604052809291908181526020018280546102ca9061107c565b80156103155780601f106102ec57610100808354040283529160200191610315565b820191905f5260205f20905b8154815290600101906020018083116102f857829003601f168201915b5050505050815260200160028201805461032e9061107c565b80601f016020809104026020016040519081016040528092919081815260200182805461035a9061107c565b80156103a55780601f1061037c576101008083540402835291602001916103a5565b820191905f5260205f20905b81548152906001019060200180831161038857829003601f168201915b505050505081526020016003820180546103be9061107c565b80601f01602080910402602001604051908101604052809291908181526020018280546103ea9061107c565b80156104355780601f1061040c57610100808354040283529160200191610435565b820191905f5260205f20905b81548152906001019060200180831161041857829003601f168201915b5050505050815260200160048201805461044e9061107c565b80601f016020809104026020016040519081016040528092919081815260200182805461047a9061107c565b80156104c55780601f1061049c576101008083540402835291602001916104c5565b820191905f5260205f20905b8154815290600101906020018083116104a857829003601f168201915b505050505081526020016005820180546104de9061107c565b80601f016020809104026020016040519081016040528092919081815260200182805461050a9061107c565b80156105555780601f1061052c57610100808354040283529160200191610555565b820191905f5260205f20905b81548152906001019060200180831161053857829003601f168201915b50505050508152602001600682015481526020016007820154815250509050919050565b5f8054604080516101008101825233815260208101898152918101889052606081018790526080810186905260a081018590524260c082015260e0810184905260018301845592805282517f290decd9548b62a8d60345a988386fc84ba6bc95484008f6362f93160ef3e5636008840290810180546001600160a01b0319166001600160a01b03909316929092178255915192939290917f290decd9548b62a8d60345a988386fc84ba6bc95484008f6362f93160ef3e564019061063d9082611100565b50604082015160028201906106529082611100565b50606082015160038201906106679082611100565b506080820151600482019061067c9082611100565b5060a082015160058201906106919082611100565b5060c0820151600682015560e090910151600790910155335f8181526001602081815260408084208054938401815584529220018390555182907f73e8d591aa1a099f447e325a9ad113326ef7484352f3f1a23bf1dec0779fe8de906106fa908a9042906111bb565b60405180910390a3505050505050565b6001602052815f5260405f208181548110610723575f80fd5b905f5260205f20015f91509150505481565b5f8181548110610743575f80fd5b5f918252602090912060089091020180546001820180546001600160a01b039092169350906107719061107c565b80601f016020809104026020016040519081016040528092919081815260200182805461079d9061107c565b80156107e85780601f106107bf576101008083540402835291602001916107e8565b820191905f5260205f20905b8154815290600101906020018083116107cb57829003601f168201915b5050505050908060020180546107fd9061107c565b80601f01602080910402602001604051908101604052809291908181526020018280546108299061107c565b80156108745780601f1061084b57610100808354040283529160200191610874565b820191905f5260205f20905b81548152906001019060200180831161085757829003601f168201915b5050505050908060030180546108899061107c565b80601f01602080910402602001604051908101604052809291908181526020018280546108b59061107c565b80156109005780601f106108d757610100808354040283529160200191610900565b820191905f5260205f20905b8154815290600101906020018083116108e357829003601f168201915b5050505050908060040180546109159061107c565b80601f01602080910402602001604051908101604052809291908181526020018280546109419061107c565b801561098c5780601f106109635761010080835404028352916020019161098c565b820191905f5260205f20905b81548152906001019060200180831161096f57829003601f168201915b5050505050908060050180546109a19061107c565b80601f01602080910402602001604051908101604052809291908181526020018280546109cd9061107c565b8015610a185780601f106109ef57610100808354040283529160200191610a18565b820191905f5260205f20905b8154815290600101906020018083116109fb57829003601f168201915b5050505050908060060154908060070154905088565b5f548110610a775760405162461bcd60e51b8152602060048201526016602482015275115c1a5cdbd91948191bd95cc81b9bdd08195e1a5cdd60521b6044820152606401610243565b5f3411610ad05760405162461bcd60e51b815260206004820152602160248201527f54697020616d6f756e74206d7573742062652067726561746572207468616e206044820152600360fc1b6064820152608401610243565b5f5f8281548110610ae357610ae3611068565b5f918252602082206008909102015481546001600160a01b03909116925034919084908110610b1457610b14611068565b905f5260205f2090600802016007015f828254610b3191906111dc565b90915550506001600160a01b0381165f9081526002602052604081208054349290610b5d9084906111dc565b90915550506040515f906001600160a01b0383169034908381818185875af1925050503d805f8114610baa576040519150601f19603f3d011682016040523d82523d5f602084013e610baf565b606091505b5050905080610bf55760405162461bcd60e51b815260206004820152601260248201527104661696c656420746f2073656e64207469760741b6044820152606401610243565b6040513481526001600160a01b0383169033907f944676cc66b56faa2e31ce8f94f620789dda8488308d59491fabc492867d4cec9060200160405180910390a3505050565b6001600160a01b0381165f90815260016020908152604091829020805483518184028101840190945280845260609392830182828015610c9757602002820191905f5260205f20905b815481526020019060010190808311610c83575b50505050509050919050565b5f60208284031215610cb3575f5ffd5b5035919050565b5f81518084528060208401602086015e5f602082860101526020601f19601f83011685010191505092915050565b60208152610d026020820183516001600160a01b03169052565b5f60208301516101006040840152610d1e610120840182610cba565b90506040840151601f19848303016060850152610d3b8282610cba565b9150506060840151601f19848303016080850152610d598282610cba565b9150506080840151601f198483030160a0850152610d778282610cba565b91505060a0840151601f198483030160c0850152610d958282610cba565b91505060c084015160e084015260e08401516101008401528091505092915050565b634e487b7160e01b5f52604160045260245ffd5b5f82601f830112610dda575f5ffd5b813567ffffffffffffffff811115610df457610df4610db7565b604051601f8201601f19908116603f0116810167ffffffffffffffff81118282101715610e2357610e23610db7565b604052818152838201602001851015610e3a575f5ffd5b816020850160208301375f918101602001919091529392505050565b5f5f5f5f5f60a08688031215610e6a575f5ffd5b853567ffffffffffffffff811115610e80575f5ffd5b610e8c88828901610dcb565b955050602086013567ffffffffffffffff811115610ea8575f5ffd5b610eb488828901610dcb565b945050604086013567ffffffffffffffff811115610ed0575f5ffd5b610edc88828901610dcb565b935050606086013567ffffffffffffffff811115610ef8575f5ffd5b610f0488828901610dcb565b925050608086013567ffffffffffffffff811115610f20575f5ffd5b610f2c88828901610dcb565b9150509295509295909350565b80356001600160a01b0381168114610f4f575f5ffd5b919050565b5f5f60408385031215610f65575f5ffd5b610f6e83610f39565b946020939093013593505050565b6001600160a01b0389168152610100602082018190525f90610fa09083018a610cba565b8281036040840152610fb2818a610cba565b90508281036060840152610fc68189610cba565b90508281036080840152610fda8188610cba565b905082810360a0840152610fee8187610cba565b60c0840195909552505060e001529695505050505050565b5f60208284031215611016575f5ffd5b61101f82610f39565b9392505050565b602080825282518282018190525f918401906040840190835b8181101561105d57835183526020938401939092019160010161103f565b509095945050505050565b634e487b7160e01b5f52603260045260245ffd5b600181811c9082168061109057607f821691505b6020821081036110ae57634e487b7160e01b5f52602260045260245ffd5b50919050565b601f8211156110fb57805f5260205f20601f840160051c810160208510156110d95750805b601f840160051c820191505b818110156110f8575f81556001016110e5565b50505b505050565b815167ffffffffffffffff81111561111a5761111a610db7565b61112e81611128845461107c565b846110b4565b6020601f821160018114611160575f83156111495750848201515b5f19600385901b1c1916600184901b1784556110f8565b5f84815260208120601f198516915b8281101561118f578785015182556020948501946001909201910161116f565b50848210156111ac57868401515f19600387901b60f8161c191681555b50505050600190811b01905550565b604081525f6111cd6040830185610cba565b90508260208301529392505050565b808201808211156111fb57634e487b7160e01b5f52601160045260245ffd5b9291505056fea164736f6c634300081c000a",
  "devdoc": {
    "kind": "dev",
    "methods": {},
    "version": 1
  },
  "userdoc": {
    "kind": "user",
    "methods": {},
    "version": 1
  },
  "storageLayout": {
    "storage": [
      {
        "astId": 22,
        "contract": "contracts/MindCastRegistry.sol:MindCastRegistry",
        "label": "episodes",
        "offset": 0,
        "slot": "0",
        "type": "t_array(t_struct(Episode)18_storage)dyn_storage"
      },
      {
        "astId": 27,
        "contract": "contracts/MindCastRegistry.sol:MindCastRegistry",
        "label": "creatorEpisodes",
        "offset": 0,
        "slot": "1",
        "type": "t_mapping(t_address,t_array(t_uint256)dyn_storage)"
      },
      {
        "astId": 31,
        "contract": "contracts/MindCastRegistry.sol:MindCastRegistry",
        "label": "creatorTips",
        "offset": 0,
        "slot": "2",
        "type": "t_mapping(t_address,t_uint256)"
      }
    ],
    "types": {
      "t_address": {
        "encoding": "inplace",
        "label": "address",
        "numberOfBytes": "20"
      },
      "t_array(t_struct(Episode)18_storage)dyn_storage": {
        "base": "t_struct(Episode)18_storage",
        "encoding": "dynamic_array",
        "label": "struct MindCastRegistry.Episode[]",
        "numberOfBytes": "32"
      },
      "t_array(t_uint256)dyn_storage": {
        "base": "t_uint256",
        "encoding": "dynamic_array",
        "label": "uint256[]",
        "numberOfBytes": "32"
      },
      "t_mapping(t_address,t_array(t_uint256)dyn_storage)": {
        "encoding": "mapping",
        "key": "t_address",
        "label": "mapping(address => uint256[])",
        "numberOfBytes": "32",
        "value": "t_array(t_uint256)dyn_storage"
      },
      "t_mapping(t_address,t_uint256)": {
        "encoding": "mapping",
        "key": "t_address",
        "label": "mapping(address => uint256)",
        "numberOfBytes": "32",
        "value": "t_uint256"
      },
      "t_string_storage": {
        "encoding": "bytes",
        "label": "string",
        "numberOfBytes": "32"
      },
      "t_struct(Episode)18_storage": {
        "encoding": "inplace",
        "label": "struct MindCastRegistry.Episode",
        "members": [
          {
            "astId": 3,
            "contract": "contracts/MindCastRegistry.sol:MindCastRegistry",
            "label": "creator",
            "offset": 0,
            "slot": "0",
            "type": "t_address"
          },
          {
            "astId": 5,
            "contract": "contracts/MindCastRegistry.sol:MindCastRegistry",
            "label": "title",
            "offset": 0,
            "slot": "1",
            "type": "t_string_storage"
          },
          {
            "astId": 7,
            "contract": "contracts/MindCastRegistry.sol:MindCastRegistry",
            "label": "audioURI",
            "offset": 0,
            "slot": "2",
            "type": "t_string_storage"
          },
          {
            "astId": 9,
            "contract": "contracts/MindCastRegistry.sol:MindCastRegistry",
            "label": "transcriptURI",
            "offset": 0,
            "slot": "3",
            "type": "t_string_storage"
          },
          {
            "astId": 11,
            "contract": "contracts/MindCastRegistry.sol:MindCastRegistry",
            "label": "summary",
            "offset": 0,
            "slot": "4",
            "type": "t_string_storage"
          },
          {
            "astId": 13,
            "contract": "contracts/MindCastRegistry.sol:MindCastRegistry",
            "label": "tags",
            "offset": 0,
            "slot": "5",
            "type": "t_string_storage"
          },
          {
            "astId": 15,
            "contract": "contracts/MindCastRegistry.sol:MindCastRegistry",
            "label": "timestamp",
            "offset": 0,
            "slot": "6",
            "type": "t_uint256"
          },
          {
            "astId": 17,
            "contract": "contracts/MindCastRegistry.sol:MindCastRegistry",
            "label": "tipAmount",
            "offset": 0,
            "slot": "7",
            "type": "t_uint256"
          }
        ],
        "numberOfBytes": "256"
      },
      "t_uint256": {
        "encoding": "inplace",
        "label": "uint256",
        "numberOfBytes": "32"
      }
    }
  }
}